{
    "contractName": "SpecialNfts",
    "abi": [
        {
            "inputs": [
                {
                    "internalType": "contract IERC721Enumerable",
                    "name": "_NFTAddress",
                    "type": "address"
                }
            ],
            "stateMutability": "nonpayable",
            "type": "constructor"
        },
        {
            "inputs": [
                {
                    "internalType": "address",
                    "name": "_owner",
                    "type": "address"
                }
            ],
            "name": "specialNftsCount",
            "outputs": [
                {
                    "internalType": "uint256",
                    "name": "",
                    "type": "uint256"
                }
            ],
            "stateMutability": "view",
            "type": "function"
        }
    ],
    "bytecode": "60a060405234801561001057600080fd5b5060405161043b38038061043b83398101604081905261002f91610044565b60601b6001600160601b031916608052610074565b60006020828403121561005657600080fd5b81516001600160a01b038116811461006d57600080fd5b9392505050565b60805160601c6103a3610098600039600081816079015261012a01526103a36000f3fe608060405234801561001057600080fd5b506004361061002b5760003560e01c806337c5759314610030575b600080fd5b61004361003e36600461029d565b610055565b60405190815260200160405180910390f35b6040516370a0823160e01b81526001600160a01b03828116600483015260009182917f000000000000000000000000000000000000000000000000000000000000000016906370a082319060240160206040518083038186803b1580156100bb57600080fd5b505afa1580156100cf573d6000803e3d6000fd5b505050506040513d601f19601f820116820180604052508101906100f391906102cd565b90506000805b828110156101d757604051632f745c5960e01b81526001600160a01b038681166004830152602482018390526000917f000000000000000000000000000000000000000000000000000000000000000090911690632f745c599060440160206040518083038186803b15801561016e57600080fd5b505afa158015610182573d6000803e3d6000fd5b505050506040513d601f19601f820116820180604052508101906101a691906102cd565b90506101b1816101df565b156101c457826101c081610312565b9350505b50806101cf81610312565b9150506100f9565b509392505050565b6000806101eb8361022d565b905060025b81811161022157610201818561032d565b61020f575060009392505050565b8061021981610312565b9150506101f0565b50506001909111919050565b6000600382111561028e57508060006102476002836102fe565b6102529060016102e6565b90505b818110156102885790508060028161026d81866102fe565b61027791906102e6565b61028191906102fe565b9050610255565b50919050565b8115610298575060015b919050565b6000602082840312156102af57600080fd5b81356001600160a01b03811681146102c657600080fd5b9392505050565b6000602082840312156102df57600080fd5b5051919050565b600082198211156102f9576102f9610341565b500190565b60008261030d5761030d610357565b500490565b600060001982141561032657610326610341565b5060010190565b60008261033c5761033c610357565b500690565b634e487b7160e01b600052601160045260246000fd5b634e487b7160e01b600052601260045260246000fdfea2646970667358221220b36737ccded200f76420018a31589a38abebc7f1f12ca7a691b8b3ce22bbc5b664736f6c63430008070033",
    "sourcePath": "c:/Users/bochv/Desktop/Solidity Testing/erc721-enumerable-testing/contracts/SpecialNfts.sol",
    "compiler": {
        "name": "solc",
        "version": "0.8.7+commit.e28d00a7"
    },
    "functionHashes": {
        "specialNftsCount(address)": "37c57593"
    },
    "gasEstimates": {
        "creation": {
            "codeDepositCost": "186200",
            "executionCost": "infinite",
            "totalCost": "infinite"
        },
        "external": {
            "specialNftsCount(address)": "infinite"
        },
        "internal": {
            "isPrime(uint256)": "infinite",
            "sqrt(uint256)": "infinite"
        }
    }
}